:100000000C947F000C949C000C949C000C949C001D
:100010000C949C000C949C000C949C000C949C00F0
:100020000C949C000C949C000C949C000C949C00E0
:100030000C949C000C949C000C949C000C949C00D0
:100040000C949C000C949C000C949C000C949C00C0
:100050000C949C000C949C000C949C000C949C00B0
:100060000C949C000C949C000C949C000C949C00A0
:100070000C949C000C949C000C949C0007634236EA
:10008000B79BD8A71A39685618AEBAAB558C1D3C29
:10009000B7CC5763BD6DEDFD753EF6177231BF00ED
:1000A0000000803F08000000BE922449123EABAA27
:1000B000AA2ABECDCCCC4C3E00000080BEABAAAA82
:1000C000AA3E00000000BF000000803F00000000CA
:1000D00000084178D3BB4387D1133D190E3CC3BD03
:1000E0004282AD2B3E68EC8276BED98FE1A93E4CB0
:1000F00080EFFFBE01C4FF7F3F000000000011241D
:100100001FBECFEFD0E1DEBFCDBF11E0A0E0B1E078
:10011000E0EFF6E102C005900D92AE33B107D9F7DA
:1001200011E0AEE3B1E001C01D92AA35B107E1F7DD
:100130000E94B5000C94760B0C94000080E090E0D7
:100140000E940F07282F392F2F31310530F02B3F18
:10015000310530F421E430E005C027E330E002C08F
:100160002FE530E0822F932F08954F925F926F9288
:100170007F928F929F92AF92BF92CF92DF92EF9237
:10018000FF920F931F93DF93CF93CDB7DEB76297A4
:100190000FB6F894DEBF0FBECDBF0E94EA0181E02A
:1001A00060E00E94BA0180E091E00E94180280E0C5
:1001B00061E00E94A60283E091E00E94180285E0BF
:1001C00061E00E94A60286E091E00E94180285E0AC
:1001D00060E00E94A60289E091E00E94180284B1CA
:1001E0008FEF84B981B18E6F81B919821A821B8217
:1001F0001C821D821E821F8218860E9400060E9499
:10020000DB0284E690E00E941C030E9471030E94BE
:1002100008070F2EF5E04F2E5524F02D4C0E5D1ED5
:100220003E010894611C711C882499240F2EFAE069
:10023000EF2EF02D0F2EFCE0CF2EF1E0DF2EF02D73
:100240000F2EF9E0AF2EBB24F02DAC0EBD1E14987E
:100250001598C301B2010E940504840114981598F1
:100260000E949E00F82EC4010E940F07B5014AE0CB
:1002700050E00E94F50A82E060E00E94A6026981D7
:100280007A818B819C8143E050E00E94280289E0C2
:1002900060E00E94A6026D817E818F81988546E094
:1002A00050E00E94280282E061E00E94A60286E1FE
:1002B00090E062E070E00E94280288E061E00E9425
:1002C000A602C5010E9418028F2D6E2D0E94980A69
:1002D000F601E90FF11D908195B9149A1598E1EE98
:1002E000F4E03197F1F700C0000014981598F6017A
:1002F000E80FF11D808185B91498159A81EE94E07C
:100300000197F1F700C000000F5F1F4F0233110586
:1003100009F0A4CF9CCF87B18F7087B95D9A5E98A2
:1003200082E08A95F1F700C05F9A92E09A95F1F722
:1003300000C086B1807F92E09A95F1F700C05F9887
:1003400095E09A95F1F700005F9A92E09A95F1F79F
:1003500000C096B192E09A95F1F700C05F9895E0E1
:100360009A95F1F700008823FCF25D9887B1806FC1
:1003700087B90895282F22952F708F70662311F466
:100380005E9801C05E9A92E09A95F1F700C05F9A7C
:1003900098B12295207F9F70922B98B995E09A95FD
:1003A000F1F700005F9895E09A95F1F700005F9AE9
:1003B00098B18295807F9F70892B88B985E08A9556
:1003C000F1F700005F9895E09A95F1F700000E9420
:1003D0008B0108958FEF96E7A1E081509040A040F7
:1003E000E1F700C0000087B1806F87B9579A569A2D
:1003F000559A88B18F7088B95F985D985E9800C0F3
:1004000000C000005F9A459A95E09A95F1F70000C8
:100410005F98A5E0AA95F1F700000E948B018CE09F
:1004200060E00E94BA0188E260E00E94BA0108958B
:10043000CF93DF93EC018881882339F0219661E026
:100440000E94BA0189918823D1F7DF91CF91089555
:10045000AF92BF92CF92DF92EF92FF920F931F93D2
:10046000DF93CF9300D000D000D0CDB7DEB75A01D4
:10047000FE01319626E0DF011D922A95E9F761150C
:10048000710581059105E9F08E01095F1F4F0F2E5F
:10049000FAE0CF2EF0E0DF2EF0E0EF2EF0E0FF2EBE
:1004A000F02DA70196010E94DA0AF80162938F01EC
:1004B000622F732F842F952F61157105810591058A
:1004C00081F7FFEFAF16FFEFBF0669F42981222302
:1004D00079F4FE01329600E010E00F5F1F4F21918A
:1004E0002223D9F307C006E010E00A191B0902C055
:1004F00000E010E0992324F48DE261E00E94BA014B
:100500000630110594F47E010894E11CF11CE00E04
:10051000F11ED7018D917D01805D61E00E94BA01DD
:100520000F5F1F4F06301105A4F326960FB6F894FF
:10053000DEBF0FBECDBFCF91DF911F910F91FF9016
:10054000EF90DF90CF90BF90AF900895883230F455
:1005500061118064806860E00E94BA0108951F9371
:10056000182F8A3019F48DE00E94AF02E0ECF0E021
:10057000808185FFFDCF1093C60080E090E01F9141
:100580000895BC01E9EBF0E080818E7F808380815B
:100590008D7F808380EA9FE00E94A40A603140F052
:1005A00070E06051704012F46F5F7F4F75956795F2
:1005B0006093B800089584E690E00E94C102ECEBDD
:1005C000F0E08081846080830895399A84EA809382
:1005D000BC00089584E98093BC0008958091BC001C
:1005E00088239CF080E090E0ECEBF0E00196208125
:1005F000222324F08A359105C9F703C08935910576
:1006000024F08CE191E00E94160B0895882339F0C4
:10061000ECEBF0E080818F70806C80830895ECEBD0
:10062000F0E080818F708068808308958091BB00A6
:1006300008958091B9000895009759F40895000035
:10064000000000000000000000002150C1F70197E9
:1006500011F02AE5F4CF08951F93182F81E090E060
:100660000E941C03399A1093BB0084E88093BC005D
:100670001F9108950F931F93182F0E94E5020E9467
:10068000EE028EEE0E942C030E94EE02812F0E9449
:100690002C030E94EE020E94E5028FEE0E942C03C2
:1006A0000E94EE028FEF0E9406030E94EE020E945B
:1006B0001603082F0E94EE0280E00E9406030E94AB
:1006C000EE020E941603182F0E94EE02502F40E007
:1006D000212F30E0242B352B822F932F1F910F9148
:1006E00008958AEA0E943A0390934301809342015D
:1006F0008CEA0E943A0390934B0180934A018EEA60
:100700000E943A03909353018093520180EB0E9420
:100710003A0390934F0180934E0182EB0E943A037B
:10072000909349018093480184EB0E943A0390938F
:1007300047018093460186EB0E943A03909345015E
:100740008093440188EB0E943A0390933F01809389
:100750003E018AEB0E943A0390934101809340014D
:100760008CEB0E943A0390935101809350018EEBE1
:100770000E943A0390934D0180934C0108950E948A
:10078000E5020E94EE028EEE0E942C030E94EE0211
:1007900084EF0E942C030E94EE028EE20E942C0342
:1007A0000E94EE028AE090E00E941C0386EF0E9405
:1007B0003A039C0140E050E0682F732F842F952F5F
:1007C00008950E94E5020E94EE028EEE0E942C0324
:1007D0000E94EE0284EF0E942C030E94EE0284E34A
:1007E0000E942C030E94EE020E94EA028AE090E03E
:1007F0000E941C0386EF0E943A039C0140E050E0F7
:10080000682F732F842F952F08952F923F924F9228
:100810005F926F927F928F929F92AF92BF92CF9290
:10082000DF92EF92FF920F931F93DF93CF9300D04D
:1008300000D000D0CDB7DEB75C017E836D830E940F
:10084000BF030E94BF037B018C010E94E1030E9451
:10085000E10369837A838B839C8380914601909125
:100860004701A0E0B0E0A8019701281B390B4A0B13
:100870005B0BCA01B901209148013091490140E068
:1008800050E00E94790A7B018C010D2EDFE0159566
:100890000795F794E794DA95D1F7D02D6091500140
:1008A00070915101882777FD8095982F052E5BE088
:1008B000660F771F881F991F5A95D1F7502D2091E9
:1008C0004C0130914D01442737FD4095542F2E0D9A
:1008D0003F1D401F511F0E94DA0A2E0D3F1D401F71
:1008E000511FDA01C9010896A11DB11D689413F8C2
:1008F000B595A795979587951694D1F7F5018083BF
:100900009183A283B3830F2EF0E6EF2EF0EFFF2E3C
:10091000FFEF0F2FFFEF1F2FF02DE20EF31E041F2E
:10092000151FC801B701A80197010E94790A3B0170
:100930004C01052E5CE095948794779467945A95C2
:10094000D1F7502D2091520130915301442737FDAA
:100950004095542FC801B7010E94790A052E5DE029
:1009600095958795779567955A95D1F7502DAA2437
:10097000BB2465016894A1F8A60EB71EC81ED91E37
:100980002091440130914501442737FD4095542F73
:10099000C401B3010E94790ABC01992777FD9095A3
:1009A000892F6A0D7B1D8C1D9D1D959587957795CB
:1009B00067959595879577956795605070488F4FA7
:1009C0009F4F20914E0130914F0140E050E00E9436
:1009D000790A1B012C01012E1FE05694479437948D
:1009E00027941A95D1F7102DA0904201B0904301A1
:1009F000CC24B7FCC094DC2CAA0CBB1CCC1CDD1C8A
:100A0000AA0CBB1CCC1CDD1C22E030E040E050E016
:100A1000A20EB31EC41ED51E20914A0130914B0177
:100A2000442737FD4095542FC801B7010E94790A29
:100A30007B018C010D2EDBE015950795F794E7946B
:100A4000DA95D1F7D02DEA0CFB1C0C1D1D1D209151
:100A50003E0130913F01442737FD4095542FC4019A
:100A6000B3010E94790A052E5BE0959587957795ED
:100A700067955A95D1F7502D6E0D7F1D801F911FE0
:100A800024E030E040E050E00E94DA0A69817A8197
:100A90008B819C81621B730B840B950B20E533ECDF
:100AA00040E050E00E94790A99235CF0660F771FBE
:100AB000881F991FA20191010E94B80A59016A0179
:100AC0000AC0A20191010E94B80A59016A01AA0C48
:100AD000BB1CCC1CDD1C5527D7FC5A954D2D3C2D3D
:100AE0002B2DCA01B9010E94790A2EED3BE040E0AE
:100AF00050E00E94790A3B014C0161E070E080E027
:100B000090E00E94580726EF38E248EA50E40E943D
:100B1000BC07F62E072F182FE92E0F2EF0EE2F2EE2
:100B2000FEE23F2EF0E04F2EF0E05F2EF02D2A0C7B
:100B30003B1C4C1C5D1CC601B50123E433EE4FEF9A
:100B40005FEF0E94790ABC01992777FD9095892F64
:100B50006153714F8F4F9F4F3401992477FC9094CC
:100B6000892C660E771E881E991E689413F895943A
:100B70008794779467941694D1F7620C731C841C45
:100B8000951C6F2D702F812F9E2D0E9425079B0194
:100B9000AC01C401B3010E94DA0AAD81BE812D937C
:100BA0003D934D935C93139726960FB6F894DEBF52
:100BB0000FBECDBFCF91DF911F910F91FF90EF90AE
:100BC000DF90CF90BF90AF909F908F907F906F906D
:100BD0005F904F903F902F9008959093C500809321
:100BE000C4001092C00088E18093C10086E0809329
:100BF000C2008FE291E090935701809356010895CF
:100C000084B1806C84B9399A8AB18E6F8AB988B1FF
:100C1000836088B983E390E00E94ED050895E0ECDD
:100C2000F0E0908195FFFDCF8093C600089584B1D8
:100C3000816284B981E58CBD08958EBD0DB407FE37
:100C4000FDCF089528E030E090E89695215030409F
:100C5000E1F7982311F088B108C088B1000088B18D
:100C600000000000000088B1000088B1000088B1D9
:100C700088B18695869598B18170089588B128E0ED
:100C800030E080E090E848B148B142FD892B48B19E
:100C9000969521503040B9F798B1000098B1000006
:100CA0000000000098B1000098B1089588B188B1A3
:100CB000000088B1000088B1000088B10000000089
:100CC000000088B1000088B1000088B1089588B1A3
:100CD00088B189E098B198B18150E1F70E94560639
:100CE0000895EF92FF921F93CF93DF93EC017B0166
:100CF0000E94560687E00E942206182F81E00E947B
:100D00003E06888380E00E943E06F7018083812FA3
:100D1000DF91CF911F91FF90EF9008951F93CF9394
:100D2000DF93EC010E94560686E00E942206182FEF
:100D300088810E942206810FDF91CF911F91089533
:100D4000EF92FF921F93CF93DF93EC017B01142F5F
:100D50000E945606112319F0113059F405C083E0A2
:100D60000E942206182F06C085E00E942206182F36
:100D700001C010E088B182FF07C08EEF9FEF28B15D
:100D800022FF02C00197D9F788B182FD1F5F81E081
:100D90000E943E06888381E00E943E06898380E0AF
:100DA0000E943E06F7018083812FDF91CF911F9132
:100DB000FF90EF9008950895AF92BF92CF92DF9287
:100DC000FF920F931F93DF93CF9300D000D00F9229
:100DD000CDB7DEB78E010B5F1F4F6E010894C11CAB
:100DE000D11C0F2EF3E0AF2EBB24F02DAC0EBD1E98
:100DF000C601B80141E00E94A006F82EC501B80165
:100E000040E00E94A0068F0D99F30E946706F0CF84
:100E100080E480937C0087E880937A000895ECE773
:100E2000F0E090818770987F982B9083EAE7F0E05C
:100E3000808180648083808186FDFDCF2091780051
:100E400030917900822F932F089504D06894B111C6
:100E50008DC0089570D088F09F5790F0B92F9927D2
:100E6000B751A0F0D1F0660F771F881F991F1AF0B5
:100E7000BA95C9F712C0B13081F077D0B1E00895CA
:100E800074C0672F782F8827B85F39F0B93FCCF34B
:100E9000869577956795B395D9F73EF490958095AB
:100EA000709561957F4F8F4F9F4F0895E89409C0CB
:100EB00097FB3EF490958095709561957F4F8F4F8D
:100EC0009F4F9923A9F0F92F96E9BB279395F695A3
:100ED000879577956795B795F111F8CFFAF4BB0F21
:100EE00011F460FF1BC06F5F7F4F8F4F9F4F16C085
:100EF000882311F096E911C0772321F09EE8872F0F
:100F0000762F05C0662371F096E8862F70E060E0CA
:100F10002AF09A95660F771F881FDAF7880F969543
:100F2000879597F9089557FD9058440F551F59F02C
:100F30005F3F71F04795880F97FB991F61F09F3FC6
:100F400079F087950895121613061406551FF2CFEF
:100F50004695F1DF08C0161617061806991FF1CF3F
:100F600086957105610508940895E894BB27662766
:100F70007727CB0197F90895FA01EE0FFF1F3096FE
:100F80002105310599F16115710561F48038BFE3E0
:100F90009B0749F168949038810561F08038BFEF74
:100FA0009B0741F0992342F5FF3FE10531052105FB
:100FB00011F1E8940894E795D901AA2329F4AB2FFD
:100FC000BE2FF85FD0F310C0FF5F70F4A695E0F776
:100FD000F73950F019F0FF3A38F49F779F930CD00F
:100FE0000F9007FC905808953EF049C060E070E013
:100FF00080E89FE308954FE79F775F934F933F9378
:101000002F93A7D02F913F914F915F9115D105C09C
:1010100019F40EF02EC0A9CF32C08DDFC8F3963878
:10102000C0F707F80F92E8942BE33AEA48EB5FE742
:1010300011D10F920F920F924DB75EB70F92C9D098
:10104000ECE7F0E01FD04F915F91EF91FF91E595B4
:10105000EE1FFF1F49F0FE57E0684427EE0F441FC4
:10106000FA95E1F74195550B3BD00F9007FE2FC045
:10107000089597F99F6780E870E060E008959FEF1A
:1010800080EC0895DF93CF931F930F93FF92EF921D
:10109000DF927B018C01689405C0DA2EEF01D8D075
:1010A000FE01E894A5912591359145915591AEF3B6
:1010B000EF0137D1FE019701A801DA9479F7DF90AB
:1010C000EF90FF900F911F91CF91DF9108959B01B9
:1010D000AC0160E070E080E89FE376C1CACFDCC17C
:1010E0002ADFE8F39923D9F3940F511DBBF39150F4
:1010F000504094F059F0882332F0660F771F881F14
:1011000091505040C1F79E3F510544F7880F911D03
:101110009695879597F908955F3FACF0983E9CF0BF
:10112000BB27869577956795B79508F4B160939539
:10113000C1F7BB0F58F711F460FFE8CF6F5F7F4F27
:101140008F4F9F4FE3CF12CF0EF0A6C198CF689478
:1011500090CFF1DEC8F39923D1F3C6F3DF93CF9399
:101160001F930F93FF92C92FDD2788232AF0219721
:10117000660F771F881FDAF720E030E040E85FEB6A
:101180009FE3883920F0803E30F021968F77B8D0E9
:10119000E4EAF0E003C0B4D0E1EDF0E073DF8B01EE
:1011A000BE01EC01FB2E6F5771097595771F880BF7
:1011B000990B7EDE28E132E741E35FE349D0AF2DB2
:1011C0009801AE01FF900F911F91CF91DF91A9D0AF
:1011D0007FC1FA01DC01AA0FBB1F9B01AC01BF5705
:1011E00028F422273327442750781FC0B75188F4AA
:1011F000AB2F0024469537952795011CA395D2F374
:10120000002069F0220F331F441FB395DAF30DD08D
:1012100076C061307105A0E88A07B94630F49B01B9
:10122000AC016627772788279078309621F02083B5
:1012300031834283538308950BD04AC13BD128F0B8
:1012400040D118F0952309F014CF19CF11248ECE78
:101250006ADEA0F3959FD1F3950F50E0551F629F72
:10126000F001729FBB27F00DB11D639FAA27F00DFF
:10127000B11DAA1F649F6627B00DA11D661F829F26
:101280002227B00DA11D621F739FB00DA11D621F0B
:10129000839FA00D611D221F749F3327A00D611D28
:1012A000231F849F600D211D822F762F6A2F11240A
:1012B0009F5750408AF0E1F088234AF0EE0FFF1F5D
:1012C000BB1F661F771F881F91505040A9F79E3F94
:1012D000510570F0CECE4ACE5F3FECF3983EDCF382
:1012E000869577956795B795F795E7959F5FC1F7D1
:1012F000FE2B880F911D9695879597F90895505864
:10130000BB27AA270ED0E4C0D5D030F0DAD020F029
:1013100031F49F3F11F41EF4B2CE0EF4E095E7FBDA
:10132000A8CEE92F00DE80F3BA176207730784079F
:10133000950718F071F49EF518CE0EF4E0950B2E7B
:10134000BA2FA02D0B01B90190010C01CA01A00117
:101350001124FF27591B99F0593F50F4503E68F172
:101360001A16F040A22F232F342F4427585FF3CFB3
:10137000469537952795A795F0405395C9F77EF484
:101380001F16BA0B620B730B840BBAF09150A1F0CD
:10139000FF0FBB1F661F771F881FC2F70EC0BA0F53
:1013A000621F731F841F48F4879577956795B795DB
:1013B000F7959E3F08F0B3CF9395880F08F09927D3
:1013C000EE0F9795879508950CD082C07AD040F0A3
:1013D00071D030F021F45F3F19F04BCE5111C6CDE2
:1013E0004ECEA1DD98F39923C9F35523B1F3951B94
:1013F000550BBB27AA2762177307840738F09F5F36
:101400005F4F220F331F441FAA1FA9F333D00E2EA4
:101410003AF0E0E830D091505040E695001CCAF711
:1014200029D0FE2F27D0660F771F881FBB1F2617D6
:1014300037074807AB07B0E809F0BB0B802DBF01A9
:10144000FF2793585F4F2AF09E3F510568F011CE59
:101450008DCD5F3FECF3983EDCF3869577956795ED
:10146000B795F7959F5FC9F7880F911D969587955A
:1014700097F90895E1E0660F771F881FBB1F621779
:1014800073078407BA0720F0621B730B840BBA0B37
:10149000EE1F88F7E09508959F3F31F0915020F4BA
:1014A000879577956795B795880F911D9695879540
:1014B00097F9089500240A941616170618060906C7
:1014C000089500240A9412161306140605060895BA
:1014D000092E0394000C11F4882352F0BB0F40F442
:1014E000BF2B11F460FF04C06F5F7F4F8F4F9F4F82
:1014F0000895629FD001739FF001829FE00DF11D5E
:10150000649FE00DF11D929FF00D839FF00D749F7D
:10151000F00D659FF00D9927729FB00DE11DF91F29
:10152000639FB00DE11DF91FBD01CF011124089586
:10153000991B79E004C0991F961708F0961B881F25
:101540007A95C9F780950895AA1BBB1B51E107C086
:10155000AA1FBB1FA617B70710F0A61BB70B881F43
:10156000991F5A95A9F780959095BC01CD010895D2
:10157000A1E21A2EAA1BBB1BFD010DC0AA1FBB1F97
:10158000EE1FFF1FA217B307E407F50720F0A21B09
:10159000B30BE40BF50B661F771F881F991F1A9476
:1015A00069F760957095809590959B01AC01BD01A0
:1015B000CF01089597FB092E05260ED057FD04D0C4
:1015C000D7DF0AD0001C38F450954095309521950E
:1015D0003F4F4F4F5F4F0895F6F790958095709568
:1015E00061957F4F8F4F9F4F0895FB019F01E894B6
:1015F0004230C4F04532B4F44A3029F497FB1EF46B
:10160000909581959F4F642F77270E94A40A805D53
:101610008A330CF0895D8193CB010097A1F716F412
:101620005DE251931082C9010C944B0BEF92FF9233
:101630000F931F93CF93DF938C01E0915601F091AC
:101640005701838181FF1FC0C0E0D0E00AC0DB01E9
:101650001896ED91FC9119970995009711F0CFEF2D
:10166000DFEFF80181918F01609156017091570170
:10167000882369F7DB011896ED91FC9119978AE0B0
:101680000995009711F0CFEFDFEFCE01CDB7DEB7B0
:10169000E6E00C94670BDC01FC01672F7191772366
:1016A000E1F7329704C07C916D9370836291AE171D
:1016B000BF07C8F308952A88398848885F846E84F4
:1016C0007D848C849B84AA84B984C884DF80EE8066
:1016D000FD800C811B81AA81B981CE0FD11D0FB66F
:1016E000F894DEBF0FBECDBFED010895F894FFCF93
:1016F000543A00483A004C3A00503A003F065B4FDB
:10170000666D7D077F6F777C395E7971636F6D7071
:101710006C6574652074696D6564206F7574000074
:0E17200000000200000000AF02000000000008
:00000001FF
