:100000000C947F000C949C000C949C000C949C001D
:100010000C949C000C949C000C949C000C949C00F0
:100020000C949C000C949C000C949C000C949C00E0
:100030000C949C000C949C000C949C000C949C00D0
:100040000C949C000C949C000C949C000C949C00C0
:100050000C949C000C949C000C949C000C949C00B0
:100060000C949C000C949C000C949C000C949C00A0
:100070000C949C000C949C000C949C0007634236EA
:10008000B79BD8A71A39685618AEBAAB558C1D3C29
:10009000B7CC5763BD6DEDFD753EF6177231BF00ED
:1000A0000000803F08000000BE922449123EABAA27
:1000B000AA2ABECDCCCC4C3E00000080BEABAAAA82
:1000C000AA3E00000000BF000000803F00000000CA
:1000D00000084178D3BB4387D1133D190E3CC3BD03
:1000E0004282AD2B3E68EC8276BED98FE1A93E4CB0
:1000F00080EFFFBE01C4FF7F3F000000000011241D
:100100001FBECFEFD0E1DEBFCDBF11E0A0E0B1E078
:10011000EEE6F4E102C005900D92AE33B107D9F7D7
:1001200011E0AEE3B1E001C01D92AA35B107E1F7DD
:100130000E94B5000C94350A0C94000080E090E019
:100140000E94B905282F392F2F31310530F02B3F70
:10015000310530F421E430E005C027E330E002C08F
:100160002FE530E0822F932F08952F923F924F92E8
:100170005F926F927F928F929F92AF92BF92CF9237
:10018000DF92FF920F931F93DF93CF93CDB7DEB72C
:10019000E8970FB6F894DEBF0FBECDBF0E940E02E7
:1001A00081E060E00E94DE0180E091E00E943C027C
:1001B00080E061E00E94CA0283E091E00E943C027C
:1001C00088E061E00E94CA0286E091E00E943C0261
:1001D00087E060E00E94CA0289E091E00E943C0250
:1001E00084B18FEF84B981B18E6F81B919821A827F
:1001F0001B821C821D821E821F82188619861A8607
:100200001B861C861D861E861F86188A0E94AA04CD
:100210000E94FF0284E690E00E9440030E94950342
:100220000E94B2050F2EFBE18F2E9924F02D8C0E2B
:100230009D1E0F2EF5E26F2E7724F02D6C0E7D1E85
:100240000F2EFFE24F2E5524F02D4C0E5D1E222462
:1002500033240F2EFCE0CF2EF1E0DF2EF02D0F2EF9
:10026000F1E1AF2EBB24F02DAC0EBD1E14981598F5
:10027000CE010196BE016B5F7F4FAE01475F5F4FBE
:100280009E01235F3F4F0E9429046D857E858F85E7
:100290009889A4012AE030E00E94A1096D817E8145
:1002A0008F819885A3012AE030E00E94A10989810D
:1002B0009A81B2014AE050E00E94800981011498BD
:1002C00015980E949E00F82EC1010E94B905B50143
:1002D0004AE050E00E94800982E060E00E94CA0289
:1002E000C2010E943C0289E060E00E94CA02C30190
:1002F0000E943C0282E061E00E94CA02C4010E94A6
:100300003C028AE061E00E94CA02C5010E943C02F0
:100310008F2D6AE00E942309F601E90FF11D9081FB
:1003200095B9149A1598E1EEF4E03197F1F700C011
:10033000000014981598F601E80FF11D808185B929
:100340001498159A81EE94E00197F1F700C000002F
:100350000F5F1F4F0233110509F0B1CF87CF87B16F
:100360008F7087B95D9A5E9882E08A95F1F700C038
:100370005F9A92E09A95F1F700C086B1807F92E093
:100380009A95F1F700C05F9895E09A95F1F7000013
:100390005F9A92E09A95F1F700C096B192E09A9533
:1003A000F1F700C05F9895E09A95F1F70000882377
:1003B000FCF25D9887B1806F87B90895282F229548
:1003C0002F708F70662311F45E9801C05E9A92E0E0
:1003D0009A95F1F700C05F9A98B12295207F9F709F
:1003E000922B98B995E09A95F1F700005F9895E007
:1003F0009A95F1F700005F9A98B18295807F9F707F
:10040000892B88B985E08A95F1F700005F9895E01F
:100410009A95F1F700000E94AF0108958FEF96E7DB
:10042000A1E081509040A040E1F700C0000087B1FA
:10043000806F87B9579A569A559A88B18F7088B944
:100440005F985D985E9800C000C000005F9A459A72
:1004500095E09A95F1F700005F98A5E0AA95F1F76D
:1004600000000E94AF018CE060E00E94DE0188E2A3
:1004700060E00E94DE010895CF93DF93EC01888154
:10048000882339F0219661E00E94DE01899188235A
:10049000D1F7DF91CF910895AF92BF92CF92DF92C3
:1004A000EF92FF920F931F93DF93CF9300D000D072
:1004B00000D0CDB7DEB75A01FE01319626E0DF014C
:1004C0001D922A95E9F76115710581059105E9F0FD
:1004D0008E01095F1F4F0F2EFAE0CF2EF0E0DF2EC6
:1004E000F0E0EF2EF0E0FF2EF02DA70196010E9424
:1004F0004309F80162938F01622F732F842F952F88
:10050000611571058105910581F7FFEFAF16FFEFCA
:10051000BF0669F42981222379F4FE01329600E0B6
:1005200010E00F5F1F4F21912223D9F307C006E08F
:1005300010E00A191B0902C000E010E0992324F41E
:100540008DE261E00E94DE010630110594F47E0127
:100550000894E11CF11CE00EF11ED7018D917D0184
:10056000805D61E00E94DE010F5F1F4F06301105C4
:10057000A4F326960FB6F894DEBF0FBECDBFCF9181
:10058000DF911F910F91FF90EF90DF90CF90BF9080
:10059000AF900895883230F461118064806860E023
:1005A0000E94DE0108951F93182F8A3019F48DE000
:1005B0000E94D302E0ECF0E0808185FFFDCF109334
:1005C000C60080E090E01F910895BC01E9EBF0E0E7
:1005D00080818E7F808380818D7F808380EA9FE011
:1005E0000E942F09603140F070E06051704012F4B9
:1005F0006F5F7F4F759567956093B800089584E6A7
:1006000090E00E94E502ECEBF0E080818460808362
:100610000895399A84EA8093BC00089584E9809310
:10062000BC0008958091BC0088239CF080E090E09D
:10063000ECEBF0E001962081222324F08A3591052D
:10064000C9F703C08935910524F08CE191E00E943F
:10065000D5090895882339F0ECEBF0E080818F70A4
:10066000806C80830895ECEBF0E080818F7080686F
:10067000808308958091BB0008958091B90008950A
:10068000009759F4089500000000000000000000E9
:1006900000002150C1F7019711F02AE5F4CF089529
:1006A0001F93182F81E090E00E944003399A109325
:1006B000BB0084E88093BC001F9108950F931F93A3
:1006C000182F0E9409030E9412038EEE0E9450030D
:1006D0000E941203812F0E9450030E9412030E9465
:1006E00009038FEE0E9450030E9412038FEF0E94B5
:1006F0002A030E9412030E943A03082F0E94120349
:1007000080E00E942A030E9412030E943A03182FDD
:100710000E941203502F40E0212F30E0242B352B74
:10072000822F932F1F910F9108958AEA0E945E03F2
:1007300090934301809342018CEA0E945E03909360
:100740004B0180934A018EEA0E945E03909353010D
:100750008093520180EB0E945E0390934F0180933F
:100760004E0182EB0E945E03909349018093480101
:1007700084EB0E945E03909347018093460186EBD1
:100780000E945E03909345018093440188EB0E9490
:100790005E0390933F0180933E018AEB0E945E03CB
:1007A00090934101809340018CEB0E945E039093F3
:1007B0005101809350018EEB0E945E0390934D0196
:1007C00080934C0108950E9409030E9412038EEE4B
:1007D0000E9450030E94120384EF0E9450030E9463
:1007E00012038EE20E9450030E9412038AE090E0FE
:1007F0000E94400386EF0E945E039C0140E050E0AF
:10080000682F732F842F952F08950E9409030E944B
:1008100012038EEE0E9450030E94120384EF0E9486
:1008200050030E94120384E30E9450030E941203AB
:100830000E940E038AE090E00E94400386EF0E942F
:100840005E039C0140E050E0682F732F842F952FAA
:100850000895CF92DF92EF92FF920F931F93CF9361
:10086000DF93EC017B018A0169010E94E3030E948E
:10087000E3030E9405040E94050488EF90E0A0E0D5
:10088000B0E088839983AA83BB8388EC94E0A0E0DE
:10089000B0E0F80180839183A283B383688179817A
:1008A0008A819B812AE030E040E050E00E944309C9
:1008B000CA01B9010E94CF0629E939EC49E853E49D
:1008C0000E94D0059B01AC0164E073E38BE190E4EE
:1008D0000E9434069B01AC0160E070E080E89FE379
:1008E0000E94CF0528E539E348EA50EC0E94BE0794
:1008F00020E038EC4FEA57E40E945B070E949C0618
:10090000F701608371838283938384EF99E0A0E091
:10091000B0E0F60180839183A283B383DF91CF910E
:100920001F910F91FF90EF90DF90CF9008959093DB
:10093000C5008093C4001092C00088E18093C1007C
:1009400086E08093C2008FE291E0909357018093FC
:100950005601089584B1806C84B9399A8AB18E6F3A
:100960008AB988B1836088B983E390E00E949704D4
:100970000895E0ECF0E0908195FFFDCF8093C600F4
:10098000089584B1816284B981E58CBD08958EBDDE
:100990000DB407FEFDCF089528E030E090E896956D
:1009A00021503040E1F7982311F088B108C088B198
:1009B000000088B100000000000088B1000088B18C
:1009C000000088B188B18695869598B181700895A8
:1009D00088B128E030E080E090E848B148B142FDBD
:1009E000892B48B1969521503040B9F798B1000055
:1009F00098B100000000000098B1000098B108957F
:100A000088B188B1000088B1000088B1000088B1C9
:100A100000000000000088B1000088B1000088B12B
:100A2000089588B188B189E098B198B18150E1F713
:100A30000E9400050895EF92FF921F93CF93DF93DA
:100A4000EC017B010E94000587E00E94CC04182F76
:100A500081E00E94E804888380E00E94E804F701B6
:100A60008083812FDF91CF911F91FF90EF900895A8
:100A70001F93CF93DF93EC010E94000586E00E9454
:100A8000CC04182F88810E94CC04810FDF91CF9174
:100A90001F910895EF92FF921F93CF93DF93EC0184
:100AA0007B01142F0E940005112319F0113059F415
:100AB00005C083E00E94CC04182F06C085E00E9488
:100AC000CC04182F01C010E088B182FF07C08EEF60
:100AD0009FEF28B122FF02C00197D9F788B182FDAC
:100AE0001F5F81E00E94E804888381E00E94E8049F
:100AF000898380E00E94E804F7018083812FDF91E1
:100B0000CF911F91FF90EF9008950895AF92BF92FB
:100B1000CF92DF92FF920F931F93DF93CF9300D07A
:100B200000D00F92CDB7DEB78E010B5F1F4F6E0165
:100B30000894C11CD11C0F2EF3E0AF2EBB24F02D66
:100B4000AC0EBD1EC601B80141E00E944A05F82E58
:100B5000C501B80140E00E944A058F0D99F30E943B
:100B60001105F0CF80E480937C0087E880937A00C1
:100B70000895ECE7F0E090818770987F982B908340
:100B8000EAE7F0E0808180648083808186FDFDCF8C
:100B90002091780030917900822F932F089550583A
:100BA000BB27AA270ED04DC13ED130F043D120F053
:100BB00031F49F3F11F41EF433C10EF4E095E7FBCE
:100BC00029C1E92F4FD180F3BA1762077307840751
:100BD000950718F071F49EF567C10EF4E0950B2EA1
:100BE000BA2FA02D0B01B90190010C01CA01A0017F
:100BF0001124FF27591B99F0593F50F4503E68F1DA
:100C00001A16F040A22F232F342F4427585FF3CF1A
:100C1000469537952795A795F0405395C9F77EF4EB
:100C20001F16BA0B620B730B840BBAF09150A1F034
:100C3000FF0FBB1F661F771F881FC2F70EC0BA0FBA
:100C4000621F731F841F48F4879577956795B79542
:100C5000F7959E3F08F0B3CF9395880F08F099273A
:100C6000EE0F9795879508950CD0EBC0E3D040F038
:100C7000DAD030F021F45F3F19F0CCC0511115C12A
:100C8000CFC0F0D098F39923C9F35523B1F3951B46
:100C9000550BBB27AA2762177307840738F09F5F9D
:100CA0005F4F220F331F441FAA1FA9F333D00E2E0C
:100CB0003AF0E0E830D091505040E695001CCAF779
:100CC00029D0FE2F27D0660F771F881FBB1F26173E
:100CD00037074807AB07B0E809F0BB0B802DBF0111
:100CE000FF2793585F4F2AF09E3F510568F092C04E
:100CF000DCC05F3FECF3983EDCF386957795679513
:100D0000B795F7959F5FC9F7880F911D96958795C1
:100D100097F90895E1E0660F771F881FBB1F6217E0
:100D200073078407BA0720F0621B730B840BBA0B9E
:100D3000EE1F88F7E095089504D06894B111B5C00E
:100D4000089598D088F09F5790F0B92F9927B75100
:100D5000A0F0D1F0660F771F881F991F1AF0BA957F
:100D6000C9F712C0B13081F09FD0B1E008959CC0A6
:100D7000672F782F8827B85F39F0B93FCCF3869575
:100D800077956795B395D9F73EF4909580957095D2
:100D900061957F4F8F4F9F4F0895E89409C097FB4F
:100DA0003EF490958095709561957F4F8F4F9F4F42
:100DB0009923A9F0F92F96E9BB279395F695879586
:100DC00077956795B795F111F8CFFAF4BB0F11F449
:100DD00060FF1BC06F5F7F4F8F4F9F4F16C08823F0
:100DE00011F096E911C0772321F09EE8872F762F26
:100DF00005C0662371F096E8862F70E060E02AF067
:100E00009A95660F771F881FDAF7880F9695879552
:100E100097F9089597F99F6780E870E060E008957A
:100E20009FEF80EC089500240A9416161706180602
:100E30000906089500240A941216130614060506DE
:100E40000895092E0394000C11F4882352F0BB0F6F
:100E500040F4BF2B11F460FF04C06F5F7F4F8F4FD2
:100E60009F4F089557FD9058440F551F59F05F3F0D
:100E700071F04795880F97FB991F61F09F3F79F0BC
:100E800087950895121613061406551FF2CF46953E
:100E9000F1DF08C0161617061806991FF1CF8695C0
:100EA0007105610508940895E894BB2766277727A4
:100EB000CB0197F908950BD0C4CFB5DF28F0BADF86
:100EC00018F0952309F0A6CFABCF1124EECFCADFDF
:100ED000A0F3959FD1F3950F50E0551F629FF0014D
:100EE000729FBB27F00DB11D639FAA27F00DB11DA6
:100EF000AA1F649F6627B00DA11D661F829F22272F
:100F0000B00DA11D621F739FB00DA11D621F839FB5
:100F1000A00D611D221F749F3327A00D611D231F8B
:100F2000849F600D211D822F762F6A2F11249F57D9
:100F300050408AF0E1F088234AF0EE0FFF1FBB1FFC
:100F4000661F771F881F91505040A9F79E3F51059B
:100F500070F060CFAACF5F3FECF3983EDCF386954C
:100F600077956795B795F795E7959F5FC1F7FE2B46
:100F7000880F911D9695879597F90895FA01EE0FC0
:100F8000FF1F30962105310599F16115710561F456
:100F90008038BFE39B0749F168949038810561F080
:100FA0008038BFEF9B0741F0992342F5FF3FE105F1
:100FB0003105210511F1E8940894E795D901AA2398
:100FC00029F4AB2FBE2FF85FD0F310C0FF5F70F491
:100FD000A695E0F7F73950F019F0FF3A38F49F770B
:100FE0009F930CD00F9007FC905808953EF018CFB7
:100FF00060E070E080E89FE308954FE79F775F939C
:101000004F933F932F939ED02F913F914F915F919C
:1010100052DF05C019F40EF0FDCE46CF01CF2ADF16
:10102000C8F39638C0F707F80F92E8942BE33AEA32
:1010300048EB5FE74EDF0F920F920F924DB75EB70E
:101040000F92C0D0ECE7F0E016D04F915F91EF9196
:10105000FF91E595EE1FFF1F49F0FE57E06844271A
:10106000EE0F441FFA95E1F74195550B32D00F90E2
:1010700007FE26C00895DF93CF931F930F93FF922F
:10108000EF92DF927B018C01689405C0DA2EEF01AC
:101090001EDFFE01E894A59125913591459155916A
:1010A000AEF3EF018EDDFE019701A801DA9479F726
:1010B000DF90EF90FF900F911F91CF91DF910895F6
:1010C0009B01AC0160E070E080E89FE3CDCDA2CE53
:1010D000ACC0D0DEE8F39923D9F3940F511DBBF3D4
:1010E0009150504094F059F0882332F0660F771FEA
:1010F000881F91505040C1F79E3F510544F7880F1B
:10110000911D9695879597F908955F3FACF0983EAD
:101110009CF0BB27869577956795B79508F4B160E5
:101120009395C1F7BB0F58F711F460FFE8CF6F5FDD
:101130007F4F8F4F9F4FE3CFB8CE0EF076C070CE6B
:10114000689468CE97DEC8F39923D1F3C6F3DF9392
:10115000CF931F930F93FF92C92FDD2788232AF087
:101160002197660F771F881FDAF720E030E040E80C
:101170005FEB9FE3883920F0803E30F021968F7737
:101180000FDDE4EAF0E003C00BDDE1EDF0E073DF3A
:101190008B01BE01EC01FB2E6F5771097595771F0E
:1011A000880B990BFCDD28E132E741E35FE38FDE3A
:1011B000AF2D9801AE01FF900F911F91CF91DF915C
:1011C00000DD3FCEFA01DC01AA0FBB1F9B01AC0181
:1011D000BF5728F422273327442750781FC0B75120
:1011E00088F4AB2F0024469537952795011CA395CD
:1011F000D2F3002069F0220F331F441FB395DAF3B6
:101200000DD0CDCC61307105A0E88A07B94630F425
:101210009B01AC016627772788279078309621F0CC
:10122000208331834283538308959F3F31F091504F
:1012300020F4879577956795B795880F911D9695BA
:10124000879597F90895991B79E004C0991F96171F
:1012500008F0961B881F7A95C9F780950895AA1BF8
:10126000BB1B51E107C0AA1FBB1FA617B70710F091
:10127000A61BB70B881F991F5A95A9F780959095C3
:10128000BC01CD01089597FB092E05260ED057FD10
:1012900004D014D00AD0001C38F4509540953095F5
:1012A00021953F4F4F4F5F4F0895F6F790958095EA
:1012B000709561957F4F8F4F9F4F0895A1E21A2E31
:1012C000AA1BBB1BFD010DC0AA1FBB1FEE1FFF1FEA
:1012D000A217B307E407F50720F0A21BB30BE40B3A
:1012E000F50B661F771F881F991F1A9469F7609581
:1012F0007095809590959B01AC01BD01CF0108953B
:10130000FB019F01E8944230C4F04532B4F44A3006
:1013100029F497FB1EF4909581959F4F642F7727B2
:101320000E942F09805D8A330CF0895D8193CB0187
:101330000097A1F716F45DE251931082C9010C9455
:101340000A0AFA01CF93FF93EF93223044F125323A
:1013500034F5C22FE894CA3049F497FB3EF49095D7
:101360008095709561957F4F8F4F9F4F2C2F33271E
:1013700044275527FF93EF930E945E09EF91FF9159
:10138000605D6A330CF0695D6193B901CA01605018
:1013900070408040904051F716F4CDE2C193108226
:1013A0008F919F91CF910C940A0AEF92FF920F9325
:1013B0001F93CF93DF938C01E0915601F091570179
:1013C000838181FF1FC0C0E0D0E00AC0DB01189616
:1013D000ED91FC9119970995009711F0CFEFDFEF90
:1013E000F80181918F016091560170915701882316
:1013F00069F7DB011896ED91FC9119978AE0099540
:10140000009711F0CFEFDFEFCE01CDB7DEB7E6E00A
:101410000C94260ADC01FC01672F71917723E1F718
:10142000329704C07C916D9370836291AE17BF07B1
:10143000C8F308952A88398848885F846E847D843B
:101440008C849B84AA84B984C884DF80EE80FD806C
:101450000C811B81AA81B981CE0FD11D0FB6F894E2
:0E146000DEBF0FBECDBFED010895F894FFCFA3
:10146E00543A00413A004C3A00503A003F065B4F66
:10147E00666D7D077F6F777C395E7971636F6D70F6
:10148E006C6574652074696D6564206F75740000F9
:0E149E0000000200000000D302000000000069
:00000001FF
